{
  "_format": "hh-sol-artifact-1",
  "contractName": "TodoList",
  "sourceName": "contracts/ToDoList.sol",
  "abi": [
    {
      "anonymous": false,
      "inputs": [
        {
          "indexed": false,
          "internalType": "uint256",
          "name": "taskId",
          "type": "uint256"
        },
        {
          "indexed": false,
          "internalType": "string",
          "name": "ipfsHash",
          "type": "string"
        }
      ],
      "name": "TaskAdded",
      "type": "event"
    },
    {
      "anonymous": false,
      "inputs": [
        {
          "indexed": false,
          "internalType": "uint256",
          "name": "taskId",
          "type": "uint256"
        }
      ],
      "name": "TaskCompleted",
      "type": "event"
    },
    {
      "anonymous": false,
      "inputs": [
        {
          "indexed": false,
          "internalType": "uint256",
          "name": "taskId",
          "type": "uint256"
        }
      ],
      "name": "TaskDeleted",
      "type": "event"
    },
    {
      "inputs": [
        {
          "internalType": "string",
          "name": "_ipfsHash",
          "type": "string"
        }
      ],
      "name": "addTask",
      "outputs": [],
      "stateMutability": "nonpayable",
      "type": "function"
    },
    {
      "inputs": [
        {
          "internalType": "uint256",
          "name": "_index",
          "type": "uint256"
        }
      ],
      "name": "completeTask",
      "outputs": [],
      "stateMutability": "nonpayable",
      "type": "function"
    },
    {
      "inputs": [
        {
          "internalType": "uint256",
          "name": "_index",
          "type": "uint256"
        }
      ],
      "name": "deleteTask",
      "outputs": [],
      "stateMutability": "nonpayable",
      "type": "function"
    },
    {
      "inputs": [
        {
          "internalType": "uint256",
          "name": "_index",
          "type": "uint256"
        }
      ],
      "name": "getTask",
      "outputs": [
        {
          "internalType": "string",
          "name": "",
          "type": "string"
        },
        {
          "internalType": "bool",
          "name": "",
          "type": "bool"
        }
      ],
      "stateMutability": "view",
      "type": "function"
    },
    {
      "inputs": [],
      "name": "getTaskCount",
      "outputs": [
        {
          "internalType": "uint256",
          "name": "",
          "type": "uint256"
        }
      ],
      "stateMutability": "view",
      "type": "function"
    },
    {
      "inputs": [],
      "name": "getTasks",
      "outputs": [
        {
          "components": [
            {
              "internalType": "string",
              "name": "ipfsHash",
              "type": "string"
            },
            {
              "internalType": "bool",
              "name": "completed",
              "type": "bool"
            }
          ],
          "internalType": "struct TodoList.Task[]",
          "name": "",
          "type": "tuple[]"
        }
      ],
      "stateMutability": "view",
      "type": "function"
    },
    {
      "inputs": [
        {
          "internalType": "uint256",
          "name": "",
          "type": "uint256"
        }
      ],
      "name": "tasks",
      "outputs": [
        {
          "internalType": "string",
          "name": "ipfsHash",
          "type": "string"
        },
        {
          "internalType": "bool",
          "name": "completed",
          "type": "bool"
        }
      ],
      "stateMutability": "view",
      "type": "function"
    }
  ],
  "bytecode": "0x608060405234801561001057600080fd5b50611047806100206000396000f3fe608060405234801561001057600080fd5b506004361061007d5760003560e01c8063672385621161005b57806367238562146100ed5780638d97767214610109578063c17a340e1461013a578063e1e29558146101585761007d565b806304a87e38146100825780631d65e77e146100a0578063560f3192146100d1575b600080fd5b61008a610174565b6040516100979190610c7b565b60405180910390f35b6100ba60048036038101906100b59190610aad565b610280565b6040516100c8929190610c9d565b60405180910390f35b6100eb60048036038101906100e69190610aad565b6103e1565b005b61010760048036038101906101029190610a6c565b6105f6565b005b610123600480360381019061011e9190610aad565b6106c5565b604051610131929190610c9d565b60405180910390f35b61014261078e565b60405161014f9190610ced565b60405180910390f35b610172600480360381019061016d9190610aad565b61079a565b005b60606000805480602002602001604051908101604052809291908181526020016000905b8282101561027757838290600052602060002090600202016040518060400160405290816000820180546101cb90610ee1565b80601f01602080910402602001604051908101604052809291908181526020018280546101f790610ee1565b80156102445780601f1061021957610100808354040283529160200191610244565b820191906000526020600020905b81548152906001019060200180831161022757829003601f168201915b505050505081526020016001820160009054906101000a900460ff16151515158152505081526020019060010190610198565b50505050905090565b60606000808054905083106102ca576040517f08c379a00000000000000000000000000000000000000000000000000000000081526004016102c190610ccd565b60405180910390fd5b6000808481548110610305577f4e487b7100000000000000000000000000000000000000000000000000000000600052603260045260246000fd5b906000526020600020906002020160405180604001604052908160008201805461032e90610ee1565b80601f016020809104026020016040519081016040528092919081815260200182805461035a90610ee1565b80156103a75780601f1061037c576101008083540402835291602001916103a7565b820191906000526020600020905b81548152906001019060200180831161038a57829003601f168201915b505050505081526020016001820160009054906101000a900460ff1615151515815250509050806000015181602001519250925050915091565b6000805490508110610428576040517f08c379a000000000000000000000000000000000000000000000000000000000815260040161041f90610ccd565b60405180910390fd5b60008190505b60016000805490506104409190610e55565b8110156105465760006001826104569190610dff565b8154811061048d577f4e487b7100000000000000000000000000000000000000000000000000000000600052603260045260246000fd5b9060005260206000209060020201600082815481106104d5577f4e487b7100000000000000000000000000000000000000000000000000000000600052603260045260246000fd5b906000526020600020906002020160008201816000019080546104f790610ee1565b61050292919061087f565b506001820160009054906101000a900460ff168160010160006101000a81548160ff021916908315150217905550905050808061053e90610f13565b91505061042e565b50600080548061057f577f4e487b7100000000000000000000000000000000000000000000000000000000600052603160045260246000fd5b6001900381819060005260206000209060020201600080820160006105a4919061090c565b6001820160006101000a81549060ff0219169055505090557fd078b251d950cc55c44340be1db732337ef4939a76e1367ee271ad2cb19c46af816040516105eb9190610ced565b60405180910390a150565b60006040518060400160405280838152602001600015158152509080600181540180825580915050600190039060005260206000209060020201600090919091909150600082015181600001908051906020019061065592919061094c565b5060208201518160010160006101000a81548160ff02191690831515021790555050507f2ee7ce8bac091b03a0c391c07ee88a246bdd72bdc6b1ef1ce4d99220595d32c560016000805490506106ab9190610e55565b826040516106ba929190610d08565b60405180910390a150565b600081815481106106d557600080fd5b90600052602060002090600202016000915090508060000180546106f890610ee1565b80601f016020809104026020016040519081016040528092919081815260200182805461072490610ee1565b80156107715780601f1061074657610100808354040283529160200191610771565b820191906000526020600020905b81548152906001019060200180831161075457829003601f168201915b5050505050908060010160009054906101000a900460ff16905082565b60008080549050905090565b60008054905081106107e1576040517f08c379a00000000000000000000000000000000000000000000000000000000081526004016107d890610ccd565b60405180910390fd5b60016000828154811061081d577f4e487b7100000000000000000000000000000000000000000000000000000000600052603260045260246000fd5b906000526020600020906002020160010160006101000a81548160ff0219169083151502179055507fc1fa7142cfb933d0855114a3bffde296944c30b727f297c14d0db4d553d3a5c7816040516108749190610ced565b60405180910390a150565b82805461088b90610ee1565b90600052602060002090601f0160209004810192826108ad57600085556108fb565b82601f106108be57805485556108fb565b828001600101855582156108fb57600052602060002091601f016020900482015b828111156108fa5782548255916001019190600101906108df565b5b50905061090891906109d2565b5090565b50805461091890610ee1565b6000825580601f1061092a5750610949565b601f01602090049060005260206000209081019061094891906109d2565b5b50565b82805461095890610ee1565b90600052602060002090601f01602090048101928261097a57600085556109c1565b82601f1061099357805160ff19168380011785556109c1565b828001600101855582156109c1579182015b828111156109c05782518255916020019190600101906109a5565b5b5090506109ce91906109d2565b5090565b5b808211156109eb5760008160009055506001016109d3565b5090565b6000610a026109fd84610d69565b610d38565b905082815260208101848484011115610a1a57600080fd5b610a25848285610e9f565b509392505050565b600082601f830112610a3e57600080fd5b8135610a4e8482602086016109ef565b91505092915050565b600081359050610a6681610ffa565b92915050565b600060208284031215610a7e57600080fd5b600082013567ffffffffffffffff811115610a9857600080fd5b610aa484828501610a2d565b91505092915050565b600060208284031215610abf57600080fd5b6000610acd84828501610a57565b91505092915050565b6000610ae28383610c2f565b905092915050565b6000610af582610da9565b610aff8185610dcc565b935083602082028501610b1185610d99565b8060005b85811015610b4d5784840389528151610b2e8582610ad6565b9450610b3983610dbf565b925060208a01995050600181019050610b15565b50829750879550505050505092915050565b610b6881610e89565b82525050565b610b7781610e89565b82525050565b6000610b8882610db4565b610b928185610ddd565b9350610ba2818560208601610eae565b610bab81610fe9565b840191505092915050565b6000610bc182610db4565b610bcb8185610dee565b9350610bdb818560208601610eae565b610be481610fe9565b840191505092915050565b6000610bfc601383610dee565b91507f5461736b20646f6573206e6f74206578697374000000000000000000000000006000830152602082019050919050565b60006040830160008301518482036000860152610c4c8282610b7d565b9150506020830151610c616020860182610b5f565b508091505092915050565b610c7581610e95565b82525050565b60006020820190508181036000830152610c958184610aea565b905092915050565b60006040820190508181036000830152610cb78185610bb6565b9050610cc66020830184610b6e565b9392505050565b60006020820190508181036000830152610ce681610bef565b9050919050565b6000602082019050610d026000830184610c6c565b92915050565b6000604082019050610d1d6000830185610c6c565b8181036020830152610d2f8184610bb6565b90509392505050565b6000604051905081810181811067ffffffffffffffff82111715610d5f57610d5e610fba565b5b8060405250919050565b600067ffffffffffffffff821115610d8457610d83610fba565b5b601f19601f8301169050602081019050919050565b6000819050602082019050919050565b600081519050919050565b600081519050919050565b6000602082019050919050565b600082825260208201905092915050565b600082825260208201905092915050565b600082825260208201905092915050565b6000610e0a82610e95565b9150610e1583610e95565b9250827fffffffffffffffffffffffffffffffffffffffffffffffffffffffffffffffff03821115610e4a57610e49610f5c565b5b828201905092915050565b6000610e6082610e95565b9150610e6b83610e95565b925082821015610e7e57610e7d610f5c565b5b828203905092915050565b60008115159050919050565b6000819050919050565b82818337600083830152505050565b60005b83811015610ecc578082015181840152602081019050610eb1565b83811115610edb576000848401525b50505050565b60006002820490506001821680610ef957607f821691505b60208210811415610f0d57610f0c610f8b565b5b50919050565b6000610f1e82610e95565b91507fffffffffffffffffffffffffffffffffffffffffffffffffffffffffffffffff821415610f5157610f50610f5c565b5b600182019050919050565b7f4e487b7100000000000000000000000000000000000000000000000000000000600052601160045260246000fd5b7f4e487b7100000000000000000000000000000000000000000000000000000000600052602260045260246000fd5b7f4e487b7100000000000000000000000000000000000000000000000000000000600052604160045260246000fd5b6000601f19601f8301169050919050565b61100381610e95565b811461100e57600080fd5b5056fea264697066735822122070a29b10b2843e85ca3005e0bb04d6fa18368a3e9f4a3050ed9be362d151432664736f6c63430008000033",
  "linkReferences": {},
  "deployedLinkReferences": {}
}